:1000000010C01DC01CC04FC01AC019C018C017C0F6
:1000100016C015C014C013C012C011C010C00FC04C
:100020000EC011241FBECFEDCDBF20E0A0E6B0E092
:1000300001C01D92A536B207E1F702D07BC0E0CF28
:10004000B89A7894B998BA9886B38093640010925D
:10005000600010926100109262001092630080B5FF
:10006000826080BD80B5846080BD8BB780628BBFAD
:1000700078948091600090916100A0916200B091AD
:100080006300181619061A061B0614F4C09A01C05C
:10009000C0982FE788E391E0215080409040E1F73D
:1000A00000C00000E6CF1F920F920FB60F921124EE
:1000B0002F938F939F93AF93BF9326B3922F9695D1
:1000C0008091640086958695892780FF14C0809171
:1000D000600090916100A0916200B0916300019670
:1000E000A11DB11D8093600090936100A0936200F8
:1000F000B093630013C08091600090916100A09163
:100100006200B09163000197A109B109809360007A
:1001100090936100A0936200B09363002093640009
:10012000BF91AF919F918F912F910F900FBE0F9024
:080130001F901895F894FFCF11
:00000001FF
