:1000000012C021C05FC01FC01EC01DC01CC01BC0CD
:100010001AC019C018C017C016C015C014C013C02C
:1000200012C011C010C011241FBECFE5D2E0DEBF48
:10003000CDBF20E0A0E6B0E001C01D92A536B2071A
:10004000E1F702D0C2C0DCCFBE9A85E090E0C69A4C
:100050002FEF30E742E0215030404040E1F700C050
:100060000000C6982FEF30E742E02150304040407A
:10007000E1F700C00000019751F7D098D198D298CD
:10008000D39889B38093640010926000109261004D
:10009000109262001092630013BC12BC83B58160A1
:1000A00083BD83B5826083BD8BB780628BBF78943C
:1000B0008FE798E321E0815090402040E1F700C0B5
:1000C0000000F6CF1F920F920FB60F9211242F93BC
:1000D0003F934F935F936F937F938F939F93AF93D0
:1000E000BF93EF93FF938091600090916100A09186
:1000F0006200B0916300BC01CD016F5F7F4F8F4FF5
:100100009F4F6093600070936100809362009093B2
:1001100063002AE030E040E050E019D0672B682B04
:10012000692B21F498B380E4892788BBFF91EF9174
:10013000BF91AF919F918F917F916F915F914F91FF
:100140003F912F910F900FBE0F901F901895052E85
:1001500097FB16F400940FD057FD05D014D007FC80
:1001600002D046F408C050954095309521953F4FF8
:100170004F4F5F4F089590958095709561957F4F93
:100180008F4F9F4F0895A1E21A2EAA1BBB1BFD01A2
:100190000DC0AA1FBB1FEE1FFF1FA217B307E40766
:1001A000F50720F0A21BB30BE40BF50B661F771FBE
:1001B000881F991F1A9469F760957095809590959E
:0E01C0009B01AC01BD01CF010895F894FFCF63
:00000001FF
