:1000000010C015C014C013C012C011C010C00FC062
:100010000EC00DC00CC00BC00AC009C008C02FC064
:1000200006C011241FBECFEDCDBF02D036C0E8CF31
:10003000B89A8AB380658ABBDC9ADE9AD69888EA39
:100040008DB980EF8EB980E88FBF85E090E021E028
:1000500028BB3FEF44E35CE0315040405040E1F7C3
:1000600000C0000018BA3FEF44E35CE0315040406C
:100070005040E1F700C00000019751F7FFCF1F92F9
:100080000F920FB60F9211248F9381E088BB8F914E
:0E0090000F900FBE0F901F901895F894FFCFA1
:00000001FF
