:1000000012C019C018C017C016C015C014C013C044
:1000100012C011C010C00FC00EC00DC00CC00BC06C
:100020000AC009C008C011241FBECFE5D2E0DEBF60
:10003000CDBF02D02EC0E4CF80EF8ABBBB9ABD9A61
:10004000C59881E280BF87B5896087BD81E08FBD9B
:1000500016BCDC9ADE9A20E030E088B3807480958C
:1000600088BB205E3F4FC9018F779078992324F495
:10007000019780689F6F019680588CBD8ABD4FE3C1
:100080008DE093E0415080409040E1F700C00000D7
:06009000E4CFF894FFCF5D
:00000001FF
