:1000000010C01DC01CC01BC01AC019C018C017C02A
:1000100016C015C014C013C012C011C010C03EC01D
:100020005BC011241FBECFEDCDBF20E0A0E6B0E045
:1000300001C01D92A737B207E1F702D003C1E0CF9C
:10004000CF93DF9300D0CDB7DD2781E087BB80E879
:100050008FBF1A821982CE01019690936700809318
:1000600066008AE00FD021E089819A81892B11F006
:1000700028BB01C018BA8FE19EE40197F1F700C0D8
:100080000000F2CFDC98DE98809362008AB38F7A0A
:100090008ABB88EA8DB980EF8EB908951F920F92BE
:1000A0000FB60F9211248F93109265001092640086
:1000B000D698CC9B02C0CE9BFCCFCE9903C088EED5
:1000C0008DB902C088EB8DB980EF8EB98F910F90FA
:1000D0000FBE0F901F9018951F920F920FB60F92A0
:1000E00011242F933F938F939F93EF93FF938091CE
:1000F00064009091650082309105D9F130F4009749
:1001000069F0019709F448C092C08430910509F460
:1001100062C0D0F1059709F468C089C08FB1882307
:1001200059F08FB1869590E020916200022E000C6C
:10013000330B82179307C1F481E088BB789B07C01B
:1001400081E090E0909365008093640008C0109275
:10015000600084E090E090936500809364001FB895
:10016000D69A8EE78EB963C088EA8DB980E78EB9DA
:100170005EC0DE9883E090E0909365008093640019
:10018000D6988EE78EB953C08FB1882329F088EABC
:100190008DB980E78EB94BC0E0916100E93054F42D
:1001A000EE0FFF0BEA59FF4F0190F081E02D8081A7
:1001B0008FB901C01FB8809161008F5F809361008B
:1001C00082E090E09093650080936400D69ADE9A76
:1001D00080E78EB92CC085E090E090936500809315
:1001E0006400D69880E78EB922C084E090E09093B6
:1001F00065008093640080916000811107C08FB119
:100200008093610081E0809360000DC0E091610007
:10021000E9304CF4EE0FFF0BEA59FF4F0190F081EB
:10022000E02D8FB180831FB8D69A8EE78EB9FF91EB
:10023000EF919F918F913F912F910F900FBE0F9053
:080240001F901895F894FFCF00
:00000001FF
