:1000000012C021C020C01FC01EC01DC01CC048C0DF
:100010006EC019C018C017C016C015C014C013C0D8
:1000200012C011C010C011241FBECFE5D2E0DEBF48
:10003000CDBF20E0A0E6B0E001C01D92A737B20717
:10004000E1F702D00BC1DCCFCF93DF9300D0CDB767
:10005000DEB7BE9A80E88FBF1A821982CE01019660
:1000600090936300809362008AE00ED089819A8128
:10007000892B11F0C69A01C0C6988FE19EE40197C2
:10008000F1F700C00000F2CFC298C09880937300CF
:1000900087B38A7F87BB88EA8DB980EF8EB90895D0
:1000A0001F920F920FB60F9211248F939F9398B3C4
:1000B00080E4892788BB1092760010927500B8986A
:1000C000B29B0BC0B09BFCCF08C088EE8DB902C0BC
:1000D00088EB8DB980EF8EB903C0B099F9CFF5CF19
:1000E0009F918F910F900FBE0F901F9018951F92A8
:1000F0000F920FB60F9211242F933F938F939F93DC
:10010000EF93FF9380917500909176008230910576
:10011000E1F134F4009769F0019709F449C093C004
:100120008430910509F463C0DCF1059709F469C0D6
:100130008AC08FB1882361F08FB190E09595879543
:1001400020917300022E000C330B82179307C1F429
:1001500081E088BB789B07C081E090E090937600B7
:100160008093750008C01092600084E090E0909346
:100170007600809375001FB8B89A8EE78EB963C079
:1001800088EA8DB980E78EB95EC0C09883E090E0C0
:100190009093760080937500B8988EE78EB953C01F
:1001A0008FB1882329F088EA8DB980E78EB94BC0DA
:1001B000E0916100E93054F4EE0FFF0BEE59FF4F70
:1001C0000190F081E02D80818FB901C01FB880912E
:1001D00061008F5F8093610082E090E090937600F1
:1001E00080937500B89AC09A80E78EB92CC085E0DC
:1001F00090E09093760080937500B89880E78EB970
:1002000022C084E090E09093760080937500809106
:100210006000811107C08FB18093610081E08093FD
:1002200060000DC0E0916100E9304CF4EE0FFF0B6F
:10023000EE59FF4F0190F081E02D8FB180831FB800
:10024000B89A8EE78EB9FF91EF919F918F913F9170
:100250002F910F900FBE0F901F901895F894FFCF1D
:00000001FF
