:1000000010C028C068C326C025C024C023C022C099
:1000100021C020C01FC01EC01DC01CC01BC04FC2BD
:1000200093C211241FBECFEDCDBF10E0A0E6B0E01B
:10003000EAE6F7E002C005900D92A236B107D9F7C3
:1000400020E0A2E6B0E001C01D92A23BB207E1F7BA
:100050001FD089C3D5CF77D1882331F05CD190E010
:1000600090936100809360000895009781F020E0F4
:1000700030E04FEF50E762E0415050406040E1F720
:1000800000C000002F5F3F4F2817390791F70895F0
:100090008BE290E048D08AE050D081E087BB80E8D6
:1000A0008FBFC1E0C8BB8091600090916100DDDF2F
:1000B00018BA8091600090916100D7DFF3CFDC9A8D
:1000C000DC9BFECF00C000C00000DE9800C000C076
:1000D000DC98DE9A779905C083E08093620080E027
:1000E000089581E00895DE98DC9ACC9BFECF00C095
:1000F00000C0DE9A00C000C000009EB1892F80724F
:1001000095FD04C094E090936200089581E0089505
:100110008DB18F7C8DB98AB38F7A8ABB1092AD0076
:100120001092AE0008959093640080936300089548
:100130009093660080936500089510928A00109253
:100140008B00109267001092680010928900109244
:10015000AD008093B1008FEF8FB98AB380658ABB01
:10016000DC9ADE9AD69888EA8DB980EF8EB98BB783
:1001700080618BBF8AB780618ABF969A08958EB9D5
:100180008BE200C000C000008DB9CC9BFECF00C048
:1001900000C08DB9611102C074990BC0769BF1CF7C
:1001A00000C000C000008FB19FEF9FB9D69A90E0C9
:1001B00008958091B100C1DF80E09CE008959F9296
:1001C000AF92BF92CF92DF92EF92FF920F931F9365
:1001D000CF93DF937C01D62F81E080936200F701FB
:1001E000808180FD04C081E082608093620067DFCF
:1001F000882309F46FC0CD2F8701BB24BA949E2CAD
:10020000AF2C90916200937009F442C0DC986801B1
:10021000FFEFCF1ADF0AF80180818FB960E080EF2D
:10022000AEDF992319F09093620030C0D69861E058
:100230008EEFA5DF80FF0CC08091620080FF04C0BC
:1002400081E08093620022C082E0809362001EC041
:10025000909162009570943071F4F7018081816013
:10026000808381E0809362002ADF81110BC08AE0E5
:10027000809362000BC0809162008E7F8093620049
:1002800086011FC0CD2F092D1A2D1BC090E023C061
:10029000D69860E080EF73DF992321F0909362009D
:1002A00090E019C06801FFEFCF1ADF0AF8018083E0
:1002B000C13011F4BFB801C01FB861E08EEF5FDF3D
:1002C0008601C15009F09DCF0EDF91E0811103C07E
:1002D00090E001C090E0892FDF91CF911F910F91A5
:1002E000FF90EF90DF90CF90BF90AF909F900895D8
:1002F000909168009F5F9F7120916700921749F06D
:10030000E92FF0E0E759FF4F80839093680081E088
:10031000089580E0089590918B0080918A0098174D
:10032000D1F380918A008F5F8F7180938A008091D2
:100330008900815080938900E0918A00F0E0E457C1
:10034000FF4F808108958091890008958091620017
:10035000089581E08093AD008BB78F7E8BBF1092A4
:10036000B1008FEF8FB98AE28DB980EF8EB9DE9A36
:10037000DC9AD69AD49A089510928A0010928B0033
:1003800010926700109268001092890090916800A6
:100390009F5F9F7190936800E0916800F0E0E759DB
:1003A000FF4F880F80830895909168009F5F9F7131
:1003B00020916700921749F0E92FF0E0E759FF4FCD
:1003C00080839093680081E0089580E00895CF9342
:1003D000DF93CDB7DD27C052CDBF909168008091EB
:1003E00067009817E1F060E0809167008F5F8F7180
:1003F00080936700E0916700A1E0B0E0AC0FBD1F03
:10040000A60FB11DF0E0E759FF4F80818C936F5F1D
:1004100090916800809167009813E6CF01C060E07A
:100420008091AE00882321F08BE08093620009C0A8
:10043000CE010196C4DE811103C08091620001C02B
:1004400080E0C05ECDBFDF91CF910895CF93DF9361
:10045000CDB7DD27C052CDBF880F816089838091E1
:10046000AE00882321F08BE08093620023C06F5F91
:10047000CE010196A4DEDE011196AE014F5D5F4F05
:1004800090918B009F5F9F712D91E92FF0E0E457D1
:10049000FF4F2083209189002F5F20938900909344
:1004A0008B00A417B50761F7811103C0809162002A
:1004B00001C080E0C05ECDBFDF91CF9108951F9253
:1004C0000F920FB60F9211242F933F934F935F9388
:1004D0006F937F938F939F93AF93BF93EF93FF930C
:1004E00081E08093AE00D698CC9B1AC0CE9BFCCF07
:1004F00017C088EF8DB98091AC00882351F08091AE
:100500008900E0916300F091640090E009951092F9
:10051000AC0080EF8EB91092B0001092AF0003C013
:10052000CE9BE7CFF6CFFF91EF91BF91AF919F9117
:100530008F917F916F915F914F913F912F910F908C
:100540000FBE0F901F9018951F920F920FB60F922B
:1005500011242F933F934F935F936F937F938F93C8
:100560009F93AF93BF93EF93FF938091AF009091D0
:10057000B0008230910509F46CC034F4009769F042
:10058000019709F444C096C08430910509F46CC009
:1005900094F1059709F472C08DC08FB1882351F092
:1005A0008FB190E0959587952091B10030E082174A
:1005B0009307E1F4789B0CC081E090E09093B00049
:1005C0008093AF00E0916500F0916600099509C045
:1005D00081E08093AC0084E090E09093B000809341
:1005E000AF001FB8D69A8EE78EB964C088EA8DB97D
:1005F00080E78EB95FC08FB1882349F088EA8DB952
:1006000080E78EB9109267001092680053C09091F5
:100610006800809167009817B9F0809167008F5F3C
:100620008F7180936700E0916700F0E0E759FF4F1A
:1006300080818FB982E090E09093B0008093AF000A
:10064000D69A80E78EB936C088EA8DB980E78EB930
:1006500031C083E090E09093B0008093AF00D698D3
:100660001FB88EE78EB926C085E090E09093B00069
:100670008093AF00D69880E78EB91CC080918B0024
:100680008F5F8F7180938B00E0918B008FB1F0E0D2
:10069000E457FF4F8083809189008F5F80938900AA
:1006A00084E090E09093B0008093AF001FB8D69A9A
:1006B0008EE78EB9FF91EF91BF91AF919F918F918E
:1006C0007F916F915F914F913F912F910F900FBE4E
:1006D0000F901F9018951F920F920FB60F92112432
:1006E0002F933F934F935F936F937F938F939F933A
:1006F000AF93BF93EF93FF93CE9B24C0CC9914C0CC
:1007000021C0CC9918C01EC080918900882341F077
:1007100080918900E0916300F091640090E0099578
:100720001092AC00759A0EC082E08A95F1F7000035
:10073000CE99E7CF07C01092AE008091AC00811136
:10074000E3CFF0CFFF91EF91BF91AF919F918F9148
:100750007F916F915F914F913F912F910F900FBEBD
:0A0760000F901F901895F894FFCF3A
:02076A00050088
:00000001FF
