:1000000012C021C074C11FC01EC01DC01CC01BC0B7
:100010001AC019C018C017C016C015C014C013C02C
:1000200012C011C010C011241FBECFE5D2E0DEBF48
:10003000CDBF20E0A0E6B0E001C01D92A637B20718
:10004000E1F739D084C3DCCF0F931F93BC01990F24
:10005000880B990B85D22DEC3CEC4CEC5DE3E4D2A3
:100060004CD28B019C017093750060937400609179
:10007000700070917100C80108D290936D00809358
:100080006C0060916E0070916F00C801FED190937A
:100090006B0080936A001F910F91089580EF8ABBD7
:1000A000BB9ABD9A81E280BF87B5896087BD81E038
:1000B0008FBD16BC0895D098D198109275001092FB
:1000C00074001092730010927200109267001092E8
:1000D0006600109265001092640010926D001092FC
:1000E0006C0010926B0010926A008FEF9FE7909364
:1000F00069008093680089B3809363008370809364
:10010000620084E190E090937100809370008AE037
:1001100090E090936F0080936E00BE9A85E090E02F
:10012000C69A2FEF30E742E0215030404040E1F7DF
:1001300000C00000C6982FEF30E742E02150304069
:100140004040E1F700C00000019751F7A7DF88E9C0
:100150009EEF7ADF8BB780628BBF13BC12BC83B576
:10016000816083BD83B5826083BD7894DC98DD9A1D
:10017000E12CF12C01E010E0C4E1D0E02091660018
:1001800030916700332314F421583F4F220F232F5F
:10019000221F330B4091640050916500552314F4E5
:1001A00041585F4F440F452F441F550B240F351FF7
:1001B000332334F4DC98DD9A31952195310902C05E
:1001C000DC9ADD982CBD80916C0090916D0090932D
:1001D00067008093660080916A0090916B0018160A
:1001E0001906D4F440916800509169002091640090
:1001F00030916500BA01681B790B261737073CF46C
:10020000820F931F909365008093640023C05093E6
:100210006500409364001EC09923E4F420916800B7
:1002200030916900319521953109409164005091D8
:100230006500B901681B790B641775073CF4840FDE
:10024000951F909365008093640004C0309365000F
:100250002093640010927300109272008FEFE81ADE
:10026000F80AC701BE0122D1892BB9F50F5F1F4FD4
:10027000A80147705078552334F441505109486F14
:100280005F6F4F5F5F4F8A019A01220F331F2295E4
:100290003295307F3227207F3227241B350B220FE7
:1002A000331F220F331F220F331F241B350B220F46
:1002B000331F220F331F220F331F241B350BC9019D
:1002C000880F991F82959295907F9827807F982715
:1002D000820F931F840F951FB7DE9FEF20E732E058
:1002E000915020403040E1F700C0000047CF1F92FE
:1002F0000F920FB60F9211242F933F934F935F935A
:100300006F937F938F939F93AF93BF93CF93DF931D
:10031000EF93FF9399B3492F437080916200841744
:1003200009F4A0C08091630086958927817020918F
:1003300072003091730060917400709175002617FF
:1003400037070CF08AC0811103C082C081112FC011
:100350006091660070916700E0917000F09171000B
:100360006E1B7F0B7093670060936600A0916E0018
:10037000B0916F006091680070916900E091640035
:10038000F0916500ED01C61BD70BCE17DF073CF4DB
:10039000EA1BFB0BF0936500E093640033C071959A
:1003A0006195710970936500609364002BC0E091C2
:1003B0006600F091670060917000709171006E0F9F
:1003C0007F1F7093670060936600E0916800F09172
:1003D0006900A0916E00B0916F006091640070910F
:1003E0006500EF01CA1BDB0B6C177D073CF46A0F3D
:1003F0007B1F709365006093640004C0F0936500F8
:10040000E0936400882339F02F5F3F4F30937300EF
:100410002093720006C0215031093093730020935D
:10042000720090936300409362008091600090910D
:1004300061000196909361008093600064E670E033
:1004400035D0892B79F498B380E4892788BB0AC01A
:10045000621773070CF47CCFAACF621773070CF4F2
:1004600075CFA5CFFF91EF91DF91CF91BF91AF9164
:100470009F918F917F916F915F914F913F912F91BC
:100480000F900FBE0F901F9018950024552704C0A1
:10049000080E591F880F991F009729F076956795C8
:1004A000B8F37105B9F7802D952F089597FB072EA6
:1004B00016F4009406D077FD08D00BD007FC05D0C9
:1004C0003EF4909581959F4F0895709561957F4F6B
:1004D0000895AA1BBB1B51E107C0AA1FBB1FA6178B
:1004E000B70710F0A61BB70B881F991F5A95A9F7DD
:1004F00080959095BC01CD01089504D06894B11108
:100500008DC0089570D088F09F5790F0B92F99272B
:10051000B751A0F0D1F0660F771F881F991F1AF00E
:10052000BA95C9F712C0B13081F077D0B1E0089523
:1005300074C0672F782F8827B85F39F0B93FCCF3A4
:10054000869577956795B395D9F73EF49095809504
:10055000709561957F4F8F4F9F4F0895E89409C024
:1005600097FB3EF490958095709561957F4F8F4FE6
:100570009F4F9923A9F0F92F96E9BB279395F695FC
:10058000879577956795B795F111F8CFFAF4BB0F7A
:1005900011F460FF1BC06F5F7F4F8F4F9F4F16C0DE
:1005A000882311F096E911C0772321F09EE8872F68
:1005B000762F05C0662371F096E8862F70E060E024
:1005C0002AF09A95660F771F881FDAF7880F96959D
:1005D000879597F9089557FD9058440F551F59F086
:1005E0005F3F71F04795880F97FB991F61F09F3F20
:1005F00079F087950895121613061406551FF2CF49
:100600004695F1DF08C0161617061806991FF1CF98
:1006100086957105610508940895E894BB276627BF
:100620007727CB0197F908950AD080C071D028F0C0
:1006300076D018F0952309F062C067C0EFCFCBDF0A
:10064000A8F39923D9F35523C9F3950F50E0551F0B
:10065000AA27EE27FF27BB2700240894679520F4DC
:10066000E20FF31FB41F0A1E220F331F441FAA1FDD
:100670006695A9F7779530F4F30FB41F0A1E121E82
:1006800008F46395330F441FAA1F221F769599F72C
:10069000879520F4B40F0A1E121E631F440FAA1F71
:1006A000221F331F8695A9F7862F712D602D1124E7
:1006B0009F5750408AF0E1F088234AF0EE0FFF1F69
:1006C000BB1F661F771F881F91505040A9F79E3FA0
:1006D000510570F014C0A2CF5F3FECF3983EDCF3FD
:1006E000869577956795B795F795E7959F5FC1F7DD
:1006F000FE2B880F911D9695879597F9089597F988
:100700009F6780E870E060E008959FEF80EC0895B7
:1007100000240A94161617061806090608950024E0
:100720000A9412161306140605060895092E03945A
:10073000000C11F4882352F0BB0F40F4BF2B11F4CE
:1007400060FF04C06F5F7F4F8F4F9F4F0895F894F5
:02075000FFCFD9
:00000001FF
