:1000000012C021C020C01FC01EC01DC01CC07EC0A9
:100010009BC019C018C017C016C015C014C013C0AB
:1000200012C011C010C011241FBECFE5D2E0DEBF48
:10003000CDBF20E0A0E6B0E001C01D92AF3AB2070C
:10004000E1F709D057C1DCCF48D0853011F4C69A0A
:100050000895C69808958AE00AD0BE9AC698789402
:10006000759BFECF50D08823D9F3EEDFF9CF1092E5
:10007000840010928500109283001092610010920B
:100080006200109260008093A80087B3856087BBF0
:10009000C29AC09AB89888EA8DB980EF8EB908954F
:1000A0009091600081E0911101C080E008959091ED
:1000B00060009032E1F3E0916200F0E0ED59FF4F13
:1000C0008083809162008F5F8F7180936200809146
:1000D00060008F5F80936000089580918300882383
:1000E000E1F3E0918400F0E0EA57FF4F80819091C6
:1000F00084009F5F9F719093840090918300915042
:100100009093830008958091830008951F920F9229
:100110000FB60F9211248F931092A7001092A60091
:10012000B898B29B02C0B09BFCCFB09903C088EFD7
:100130008DB902C088EA8DB980EF8EB98F910F908A
:100140000FBE0F901F9018951F920F920FB60F922F
:1001500011242F933F934F935F936F937F938F93CC
:100160009F93AF93BF93EF93FF938091A6009091DD
:10017000A7008230910509F477C030F4009769F048
:10018000019709F448C0A5C08430910509F477C0EF
:10019000D0F1059709F47DC09CC08FB1882331F060
:1001A0008FB186959091A800891328C0789B1BC0B9
:1001B000E091AB00F091AC00309739F08091830072
:1001C000882319F0809183000995E091A900F091AE
:1001D000AA00309709F0099581E090E09093A7007C
:1001E0008093A60006C084E090E09093A7008093DF
:1001F000A6001FB8B89A8EE78EB96BC088EA8DB991
:1002000080E78EB966C08FB1882329F088EA8DB95E
:1002100080E78EB95EC0809160008823E1F0E091B4
:100220006100F0E0ED59FF4F80818FB9809161004E
:100230008F5F8F7180936100809160008150809307
:10024000600082E090E09093A7008093A600B89AA7
:1002500080E78EB93EC0B8981FB88EE78EB988EA9D
:100260008DB980E78EB935C083E090E09093A70008
:100270008093A600B8981FB88EE78EB92AC085E093
:1002800090E09093A7008093A600B89880E78EB97D
:1002900020C080918300803290F4E09185008FB17E
:1002A000F0E0EA57FF4F8083809185008F5F8F7168
:1002B00080938500809183008F5F8093830084E02A
:1002C00090E09093A7008093A6001FB8B89A8EE79D
:1002D0008EB9FF91EF91BF91AF919F918F917F91D7
:1002E0006F915F914F913F912F910F900FBE0F90A3
:0802F0001F901895F894FFCF50
:00000001FF
