:1000000013C02CC070C02AC029C028C027C051C14D
:1000100071C124C023C022C021C020C01FC01EC087
:100020001DC01CC01BC0CC0011241FBECFE5D2E0F8
:10003000DEBFCDBF20E0A0E6B0E001C01D92AE3C27
:10004000B207E1F710E0C4E1D0E003C02197FE0160
:1000500043D3C331D107D1F776D06EC4D1CF8EE769
:1000600090E0BBD0853011F4C69A0895C6980895E3
:100070006091600070916100CB01029690936100E5
:10008000809360006F5F7F4F8EE790E0A1D060911A
:1000900060008EE790E09CD0089580EF8ABBBB9A09
:1000A000BD9A81E280BF87B5896087BD81E08FBD41
:1000B00016BC08958BB780628BBF13BC12BC83B58E
:1000C000816083BD83B5826083BD78940895992350
:1000D00034F4DC98DD9A91958195910902C0DC9AFF
:1000E000DD988CBD08951F920F920FB60F921124C8
:1000F0002F933F934F935F936F937F938F939F9330
:10010000AF93BF93EF93FF9369B361FB442740F92B
:10011000617082E690E07DD2FF91EF91BF91AF9147
:100120009F918F917F916F915F914F913F912F910F
:100130000F900FBE0F901F901895992314F081E037
:1001400008958FEF08956AE08EE790E03ED06FE269
:1001500070E08EE790E043D068E370E08EE790E0D7
:1001600043D0BE9AC69899DF60E37DEF82E690E0C7
:10017000A5D1A0DF82E690E0F9D1A9DF82E690E088
:100180000FD237D02FEF80E792E02150804090408F
:10019000E1F700C00000EECFEF92FF920F931F93A4
:1001A0001DECE12E1CECF12E0CEC1DE32FEF3FE7D4
:1001B00040E050E068EC70E082E690E0B0D11F9142
:1001C0000F91FF90EF9008950895862F23D0089502
:1001D000862F40D008956AD0089552D00895709324
:1001E000800060937F000895709382006093810087
:1001F000089580917F0090918000892B51F0759B2C
:1002000008C054D0882329F0E0917F00F09180004D
:10021000099508951092A9001092AA001092A800C2
:100220001092860010928700109285008093CD0076
:1002300087B3856087BBC29AC09AB89888EA8DB99F
:1002400080EF8EB908959091850081E0911101C0F1
:1002500080E00895909185009032E1F3E09187006D
:10026000F0E0E857FF4F8083809187008F5F8F71A8
:1002700080938700809185008F5F8093850008952B
:100280008091A8008823E1F3E091A900F0E0E55512
:10029000FF4F80819091A9009F5F9F719093A9006B
:1002A0009091A80091509093A80008958091A80083
:1002B00008951F920F920FB60F9211248F931092F0
:1002C000CC001092CB00B898B29B0BC0B09BFCCF77
:1002D00008C088EF8DB902C088EA8DB980EF8EB969
:1002E00003C0B099F9CFF5CF8F910F900FBE0F904B
:1002F0001F9018951F920F920FB60F9211242F93F3
:100300003F934F935F936F937F938F939F93AF939D
:10031000BF93EF93FF938091CB009091CC008230FC
:10032000910509F47BC034F4009769F0019709F452
:100330004CC0A9C08430910509F47BC0F4F1059745
:1003400009F481C0A0C08FB1882351F08FB190E033
:10035000959587952091CD0030E08217930741F560
:10036000789B1BC0E0917F00F0918000309739F0BE
:100370008091A800882319F08091A8000995E09148
:100380008100F0918200309709F0099581E090E0BA
:100390009093CC008093CB0006C084E090E09093D3
:1003A000CC008093CB001FB8B89A8EE78EB96BC093
:1003B00088EA8DB980E78EB966C08FB1882329F0AD
:1003C00088EA8DB980E78EB95EC080918500882368
:1003D000E1F0E0918600F0E0E857FF4F80818FB9AF
:1003E000809186008F5F8F71809386008091850059
:1003F00081508093850082E090E09093CC008093C0
:10040000CB00B89A80E78EB93EC0B8981FB88EE787
:100410008EB988EA8DB980E78EB935C083E090E067
:100420009093CC008093CB00B8981FB88EE78EB91C
:100430002AC085E090E09093CC008093CB00B898E0
:1004400080E78EB920C08091A800803290F4E091BE
:10045000AA008FB1F0E0E555FF4F80838091AA009C
:100460008F5F8F718093AA008091A8008F5F809327
:10047000A80084E090E09093CC008093CB001FB85C
:10048000B89A8EE78EB9FF91EF91BF91AF919F918E
:100490008F917F916F915F914F913F912F910F902D
:1004A0000FBE0F901F901895681779070CF4CB01B9
:1004B0000895861797070CF4CB0108950F931F93A7
:1004C000CF93DF93EC01072E000C880B990B3DD1E5
:1004D0002C813D814E815F819CD104D18B019C0197
:1004E0007983688368857985C801E5D0811540E8FE
:1004F000940711F481E090E89D878C876A857B855D
:10050000C801D9D0811520E8920711F481E090E864
:100510009F878E87DF91CF911F910F910895EF9262
:10052000FF920F931F93FC0111821082138212829B
:10053000E482F58206831783718760875387428739
:100540001586148617861686318B208B138A128A9D
:10055000158A148A118E108E138E128E60E070E050
:10056000ADDF1F910F91FF90EF900895FC01208D5A
:10057000318D428D538DC901992314F481589F4FB9
:10058000880F892F881F990B9A01552314F421583D
:100590003F4F220F232F221F330B820F931F0895EB
:1005A000FC0184859585918F808F868597851816A7
:1005B0001906A4F4628D738D20893189A901481B25
:1005C000590B641775073CF4228D338D820F931FEE
:1005D000938F828F1BC0338F228F18C09923B4F45E
:1005E000628D738D20893189319521953109A90159
:1005F000481B590B461757073CF4228D338D820F49
:10060000931F938F828F02C0338F228F13821282A7
:100610000895FC018689861303C087898417F1F148
:1006200087896817E9F080859185208D318DDC01FF
:10063000AF5FBF47A217B30744F4208D318DD901B6
:10064000A81BB90BB18FA08F04C081E090E8918FF7
:10065000808F82819381019693838283C69A1CC086
:1006600020853185A08DB18D8FEF9FE7821B930B85
:10067000A817B9073CF4808D918D280F391F318F51
:10068000208F04C08FEF9FE7918F808F82819381AD
:10069000019793838283C698668B478B0895FC01EC
:1006A000828193810895FC01808D918D0895FC01D4
:1006B000808D918D08950024552704C0080E591F80
:1006C000880F991F009729F076956795B8F3710503
:1006D000B9F7802D952F0895EE0FFF1F0590F49127
:1006E000E02D099404D06894B1118DC0089570D0A4
:1006F00088F09F5790F0B92F9927B751A0F0D1F00B
:10070000660F771F881F991F1AF0BA95C9F712C094
:10071000B13081F077D0B1E0089574C0672F782FA1
:100720008827B85F39F0B93FCCF386957795679500
:10073000B395D9F73EF490958095709561957F4F6C
:100740008F4F9F4F0895E89409C097FB3EF4909512
:100750008095709561957F4F8F4F9F4F9923A9F09A
:10076000F92F96E9BB279395F69587957795679529
:10077000B795F111F8CFFAF4BB0F11F460FF1BC06D
:100780006F5F7F4F8F4F9F4F16C0882311F096E900
:1007900011C0772321F09EE8872F762F05C06623AE
:1007A00071F096E8862F70E060E02AF09A95660F67
:1007B000771F881FDAF7880F9695879597F9089520
:1007C00057FD9058440F551F59F05F3F71F0479502
:1007D000880F97FB991F61F09F3F79F087950895E7
:1007E000121613061406551FF2CF4695F1DF08C006
:1007F000161617061806991FF1CF86957105610523
:1008000008940895E894BB2766277727CB0197F9CA
:1008100008950AD080C071D028F076D018F09523C2
:1008200009F062C067C0EFCFCBDFA8F39923D9F3FB
:100830005523C9F3950F50E0551FAA27EE27FF2730
:10084000BB2700240894679520F4E20FF31FB41F20
:100850000A1E220F331F441FAA1F6695A9F777951A
:1008600030F4F30FB41F0A1E121E08F46395330F01
:10087000441FAA1F221F769599F7879520F4B40F7D
:100880000A1E121E631F440FAA1F221F331F8695C4
:10089000A9F7862F712D602D11249F5750408AF0A3
:1008A000E1F088234AF0EE0FFF1FBB1F661F771F82
:1008B000881F91505040A9F79E3F510570F014C019
:1008C000A2CF5F3FECF3983EDCF386957795679572
:1008D000B795F795E7959F5FC1F7FE2B880F911DA0
:1008E0009695879597F9089597F99F6780E870E046
:1008F00060E008959FEF80EC089500240A94161696
:10090000170618060906089500240A9412161306FD
:10091000140605060895092E0394000C11F488238B
:1009200052F0BB0F40F4BF2B11F460FF04C06F5FA7
:0C0930007F4F8F4F9F4F0895F894FFCF2A
:00000001FF
