:1000000012C021C020C01FC01EC01DC01CC0A8C07F
:10001000C8C019C018C017C016C015C014C013C07E
:1000200012C011C010C011241FBECFE5D2E0DEBF48
:10003000CDBF20E0A0E6B0E001C01D92A03BB2071A
:10004000E1F70BD088C1DCCF80E690E01DD0853091
:1000500011F4C69A0895C69808956AE080E690E083
:100060000BD064E270E080E690E010D0BE9AC698B3
:10007000789416D0FECF0895862F23D00895862F2A
:1000800040D008956AD0089552D0089570936200C8
:100090006093610008957093640060936300089515
:1000A0008091610090916200892B51F0759B08C08E
:1000B00054D0882329F0E0916100F0916200099505
:1000C000089510928B0010928C0010928A0010926A
:1000D000680010926900109267008093AF0087B3A8
:1000E000856087BBC29AC09AB89888EA8DB980EFBC
:1000F0008EB908959091670081E0911101C080E070
:100100000895909167009032E1F3E0916900F0E08A
:10011000E659FF4F8083809169008F5F8F718093D4
:100120006900809167008F5F8093670008958091D8
:100130008A008823E1F3E0918B00F0E0E357FF4F62
:10014000808190918B009F5F9F7190938B00909125
:100150008A00915090938A00089580918A000895B2
:100160001F920F920FB60F9211248F931092AE0030
:100170001092AD00B898B29B0BC0B09BFCCF08C0EA
:1001800088EF8DB902C088EA8DB980EF8EB903C0BF
:10019000B099F9CFF5CF8F910F900FBE0F901F90B0
:1001A00018951F920F920FB60F9211242F933F9321
:1001B0004F935F936F937F938F939F93AF93BF936F
:1001C000EF93FF938091AD009091AE008230910546
:1001D00009F47BC034F4009769F0019709F44CC02E
:1001E000A9C08430910509F47BC0F4F1059709F4A6
:1001F00081C0A0C08FB1882351F08FB190E0959558
:1002000087952091AF0030E08217930741F5789BE6
:100210001BC0E0916100F0916200309739F080914D
:100220008A00882319F080918A000995E091630083
:10023000F0916400309709F0099581E090E0909387
:10024000AE008093AD0006C084E090E09093AE00D5
:100250008093AD001FB8B89A8EE78EB96BC088EA5C
:100260008DB980E78EB966C08FB1882329F088EAFE
:100270008DB980E78EB95EC0809167008823E1F078
:10028000E0916800F0E0E659FF4F80818FB98091DE
:1002900068008F5F8F718093680080916700815044
:1002A0008093670082E090E09093AE008093AD0071
:1002B000B89A80E78EB93EC0B8981FB88EE78EB95D
:1002C00088EA8DB980E78EB935C083E090E09093DD
:1002D000AE008093AD00B8981FB88EE78EB92AC0E3
:1002E00085E090E09093AE008093AD00B89880E7F1
:1002F0008EB920C080918A00803290F4E0918C0009
:100300008FB1F0E0E357FF4F808380918C008F5FC7
:100310008F7180938C0080918A008F5F80938A0018
:1003200084E090E09093AE008093AD001FB8B89A3F
:100330008EE78EB9FF91EF91BF91AF919F918F9111
:100340007F916F915F914F913F912F910F900FBED1
:0A0350000F901F901895F894FFCF4E
:00000001FF
