:1000000013C02CC070C02AC029C028C027C068C136
:1000100088C124C023C022C021C020C01FC01EC070
:100020001DC01CC01BC0C90011241FBECFE5D2E0FB
:10003000DEBFCDBF20E0A0E6B0E001C01D92AE3C27
:10004000B207E1F710E0C4E1D0E003C02197FE0160
:1000500033D4C331D107D1F776D0C6C5D1CF8EE71F
:1000600090E0D2D0853011F4C69A0895C6980895CC
:100070006091600070916100CB01029690936100E5
:10008000809360006F5F7F4F8EE790E0B8D0609103
:1000900060008EE790E0B3D0089580EF8ABBBB9AF2
:1000A000BD9A81E280BF87B5896087BD81E08FBD41
:1000B00016BC08958BB780628BBF13BC12BC83B58E
:1000C000816083BD83B5826083BD78940895992350
:1000D00034F4DC98DD9A91958195910902C0DC9AFF
:1000E000DD988CBD08951F920F920FB60F921124C8
:1000F0002F933F934F935F936F937F938F939F9330
:10010000AF93BF93EF93FF9369B361FB442740F92B
:10011000617082E690E00BD3FF91EF91BF91AF91B8
:100120009F918F917F916F915F914F913F912F910F
:100130000F900FBE0F901F901895992314F081E037
:1001400008958FEF08956AE08EE790E055D06FE252
:1001500070E08EE790E05AD068E370E08EE790E0C0
:100160005AD0BE9AC69899DF60ED72E082E690E0C0
:10017000BCD1A0DF82E690E055D2A9DF82E690E014
:10018000A1D24ED08FE097E20197F1F700C00000B6
:10019000F1CF8F929F92AF92BF92CF92DF92EF9268
:1001A000FF920F931F930F2EFAE08F2EF7ED9F2EE5
:1001B000F3EAAF2EFBE3BF2EF02D0F2EC12CD12C76
:1001C000F8E4EF2EF3E4FF2EF02D0FE612E123E02A
:1001D0003CE34FE652E163E87CE382E690E0B6D18F
:1001E0001F910F91FF90EF90DF90CF90BF90AF9055
:1001F0009F908F9008950895862F23D00895862F7D
:1002000040D008956AD0089552D008957093800028
:1002100060937F0008957093820060938100089539
:1002200080917F0090918000892B51F0759B08C0D0
:1002300054D0882329F0E0917F00F0918000099547
:1002400008951092A9001092AA001092A80010928E
:10025000860010928700109285008093CD0087B3AE
:10026000856087BBC29AC09AB89888EA8DB980EF3A
:100270008EB908959091850081E0911101C080E0D0
:100280000895909185009032E1F3E0918700F0E0CD
:10029000E857FF4F8083809187008F5F8F71809335
:1002A0008700809185008F5F8093850008958091FD
:1002B000A8008823E1F3E091A900F0E0E555FF4FA5
:1002C00080819091A9009F5F9F719093A900909168
:1002D000A80091509093A80008958091A8000895D7
:1002E0001F920F920FB60F9211248F931092CC0091
:1002F0001092CB00B898B29B0BC0B09BFCCF08C04B
:1003000088EF8DB902C088EA8DB980EF8EB903C03D
:10031000B099F9CFF5CF8F910F900FBE0F901F902E
:1003200018951F920F920FB60F9211242F933F939F
:100330004F935F936F937F938F939F93AF93BF93ED
:10034000EF93FF938091CB009091CC008230910588
:1003500009F47BC034F4009769F0019709F44CC0AC
:10036000A9C08430910509F47BC0F4F1059709F424
:1003700081C0A0C08FB1882351F08FB190E09595D6
:1003800087952091CD0030E08217930741F5789B47
:100390001BC0E0917F00F0918000309739F0809190
:1003A000A800882319F08091A8000995E0918100A8
:1003B000F0918200309709F0099581E090E09093E8
:1003C000CC008093CB0006C084E090E09093CC00FA
:1003D0008093CB001FB8B89A8EE78EB96BC088EABD
:1003E0008DB980E78EB966C08FB1882329F088EA7D
:1003F0008DB980E78EB95EC0809185008823E1F0D9
:10040000E0918600F0E0E857FF4F80818FB980913E
:1004100086008F5F8F718093860080918500815068
:100420008093850082E090E09093CC008093CB0095
:10043000B89A80E78EB93EC0B8981FB88EE78EB9DB
:1004400088EA8DB980E78EB935C083E090E090935B
:10045000CC008093CB00B8981FB88EE78EB92AC025
:1004600085E090E09093CC008093CB00B89880E733
:100470008EB920C08091A800803290F4E091AA004B
:100480008FB1F0E0E555FF4F80838091AA008F5F28
:100490008F718093AA008091A8008F5F8093A8003D
:1004A00084E090E09093CC008093CB001FB8B89A82
:1004B0008EE78EB9FF91EF91BF91AF919F918F9190
:1004C0007F916F915F914F913F912F910F900FBE50
:1004D0000F901F901895681779070CF4CB010895B9
:1004E000861797070CF4CB0108950F931F93CF93B2
:1004F000DF93EC01072E000C880B990B7ED22C8128
:100500003D814E815F8105D345D28B019C0179836A
:10051000688368857985C801BED1811540E8940754
:1005200011F481E090E89D878C876A857B85C801FE
:10053000B2D1811520E8920711F481E090E89F87FD
:100540008E87DF91CF911F910F9108956F927F92C7
:100550008F929F92AF92BF92CF92DF92EF92FF92D3
:100560000F931F93CF93DF9300D000D0CDB7DEB7AA
:100570003C01CB01BA0109831A832B833C83F3012D
:10058000118210821382128284829582A682B7829F
:1005900020E030E040E053E4BCD2A501940192D1C8
:1005A000F9D1F3017187608720E030E040E053E447
:1005B00069817A818B819C81ACD2A501940182D121
:1005C000E9D1F3017387628715861486178616862C
:1005D00020E030E040E053E4C701B6019AD2DAD11E
:1005E000F301718B608B138A128A158A148A118E1B
:1005F000108E138E128E60E070E0C30176DF0F90D4
:100600000F900F900F90DF91CF911F910F91FF905E
:10061000EF90DF90CF90BF90AF909F908F907F90A2
:100620006F900895CF93DF9300D0CDB7DEB7FC0174
:10063000208D318D332314F421583F4F220F232F67
:10064000221F330B3A832983FC01828D938D9923DA
:1006500014F481589F4F880F892F881F990B181603
:100660001906ACF449815A812FEF3FE7281B390B5B
:10067000421753073CF429813A81820F931F9A83D2
:10068000898319C08FEF9FE79A83898314C04981BA
:100690005A8121E030E8281B390B241735073CF438
:1006A00029813A81820F931F9A83898304C081E054
:1006B00090E89A83898389819A810F900F90DF91C6
:1006C000CF910895FC0184859585918F808F208935
:1006D0003189868597851816190694F4428D538DB5
:1006E000B901681B790B461757073CF4228D338DEF
:1006F000820F931F938F828F17C0338F228F14C066
:10070000319521953109428D538DB901681B790BC3
:10071000641775073CF4228D338D820F931F938FDE
:10072000828F02C0338F228F138212820895CF935B
:10073000DF93FC018689861304C08789841709F436
:100740009BC087896817A9F180859185208D318D9F
:10075000DC01AF5FBF47A217B30744F4208D318D92
:10076000D901A81BB90BB18FA08F04C081E090E81C
:10077000918F808F8089918922853385A28DB38D59
:10078000E901C81BD90BCA17DB073CF4828D938D96
:10079000821B930B938F828F05C091958195910950
:1007A000938F828F82819381019693838283C69AED
:1007B00061C08085918518161906ACF4A08DB18DA5
:1007C0002FEF3FE7281B390BA217B3073CF4208D0E
:1007D000318D820F931F918F808F19C08FEF9FE70C
:1007E000918F808F14C0A08DB18D21E030E8281B3F
:1007F000390B2A173B073CF4208D318D820F931F54
:10080000918F808F04C081E090E8918F808F208944
:100810003189828593851816190694F4A28DB38DBB
:10082000E901C81BD90BAC17BD073CF4228D338DF1
:10083000820F931F938F828F17C0338F228F14C024
:10084000A28DB38D21E030E8281B390B2A173B0716
:100850003CF4228D338D820F931F938F828F04C0BF
:1008600081E090E8938F828F8281938101979383B7
:100870008283C698668B478BDF91CF910895FC01E8
:10088000828193810895FC01808D918D0895FC01F2
:10089000808D918D08950024552704C0080E591F9E
:1008A000880F991F009729F076956795B8F3710521
:1008B000B9F7802D952F0895EE0FFF1F0590F49145
:1008C000E02D09940CD0EBC0E3D040F0DAD030F04A
:1008D00021F45F3F19F0CCC0511115C1CFC0F0D049
:1008E00098F39923C9F35523B1F3951B550BBB27F7
:1008F000AA2762177307840738F09F5F5F4F220FA4
:10090000331F441FAA1FA9F333D00E2E3AF0E0E89C
:1009100030D091505040E695001CCAF729D0FE2FE8
:1009200027D0660F771F881FBB1F2617370748077A
:10093000AB07B0E809F0BB0B802DBF01FF27935830
:100940005F4F2AF09E3F510568F092C0DCC05F3FC8
:10095000ECF3983EDCF3869577956795B795F79518
:100960009F5FC9F7880F911D9695879597F9089510
:10097000E1E0660F771F881FBB1F621773078407AC
:10098000BA0720F0621B730B840BBA0BEE1F88F7BB
:10099000E095089504D06894B111B5C0089598D039
:1009A00088F09F5790F0B92F9927B751A0F0D1F058
:1009B000660F771F881F991F1AF0BA95C9F712C0E2
:1009C000B13081F09FD0B1E008959CC0672F782F9F
:1009D0008827B85F39F0B93FCCF38695779567954E
:1009E000B395D9F73EF490958095709561957F4FBA
:1009F0008F4F9F4F0895E89409C097FB3EF4909560
:100A00008095709561957F4F8F4F9F4F9923A9F0E7
:100A1000F92F96E9BB279395F69587957795679576
:100A2000B795F111F8CFFAF4BB0F11F460FF1BC0BA
:100A30006F5F7F4F8F4F9F4F16C0882311F096E94D
:100A400011C0772321F09EE8872F762F05C06623FB
:100A500071F096E8862F70E060E02AF09A95660FB4
:100A6000771F881FDAF7880F9695879597F908956D
:100A700097F99F6780E870E060E008959FEF80EC51
:100A8000089500240A9416161706180609060895F4
:100A900000240A9412161306140605060895092E5A
:100AA0000394000C11F4882352F0BB0F40F4BF2BC9
:100AB00011F460FF04C06F5F7F4F8F4F9F4F089509
:100AC00057FD9058440F551F59F05F3F71F04795FF
:100AD000880F97FB991F61F09F3F79F087950895E4
:100AE000121613061406551FF2CF4695F1DF08C003
:100AF000161617061806991FF1CF86957105610520
:100B000008940895E894BB2766277727CB0197F9C7
:100B100008950AD0C4CFB5DF28F0BADF18F09523C6
:100B200009F0A6CFABCFEFCFCBDFA8F39923D9F352
:100B30005523C9F3950F50E0551FAA27EE27FF272D
:100B4000BB2700240894679520F4E20FF31FB41F1D
:100B50000A1E220F331F441FAA1F6695A9F7779517
:100B600030F4F30FB41F0A1E121E08F46395330FFE
:100B7000441FAA1F221F769599F7879520F4B40F7A
:100B80000A1E121E631F440FAA1F221F331F8695C1
:100B9000A9F7862F712D602D11249F5750408AF0A0
:100BA000E1F088234AF0EE0FFF1FBB1F661F771F7F
:100BB000881F91505040A9F79E3F510570F058CFC3
:100BC000A2CF5F3FECF3983EDCF38695779567956F
:100BD000B795F795E7959F5FC1F7FE2B880F911D9D
:0C0BE0009695879597F90895F894FFCF3B
:00000001FF
