:1000000012C021C020C01FC01EC01DC01CC0D0C057
:10001000F0C019C018C017C016C015C014C013C056
:1000200012C011C010C011241FBECFE5D2E0DEBF48
:10003000CDBF20E0A0E6B0E001C01D92A23BB20718
:10004000E1F72DD0C8C2DCCF82E690E045D0853004
:1000500011F4C69A0895C698089560916000709151
:100060006100CB01029690936100809360006F5F06
:100070007F4F82E690E02BD06091600082E690E0B6
:1000800026D0089580EF8ABBBB9ABD9A81E280BFDB
:1000900087B5896087BD81E08FBD16BC08956AE091
:1000A00082E690E011D064E270E082E690E016D043
:1000B0006DE270E082E690E016D0BE9AC698E2DF6C
:1000C000789416D0FECF0895862F23D00895862FDA
:1000D00040D008956AD0089552D008957093640076
:1000E00060936300089570936600609365000895BF
:1000F0008091630090916400892B51F0759B08C03A
:1001000054D0882329F0E0916300F09164000995B0
:10011000089510928D0010928E0010928C00109213
:100120006A0010926B00109269008093B10087B34F
:10013000856087BBC29AC09AB89888EA8DB980EF6B
:100140008EB908959091690081E0911101C080E01D
:100150000895909169009032E1F3E0916B00F0E036
:10016000E459FF4F808380916B008F5F8F71809384
:100170006B00809169008F5F809369000895809182
:100180008C008823E1F3E0918D00F0E0E157FF4F10
:10019000808190918D009F5F9F7190938D009091D1
:1001A0008C00915090938C00089580918C0008955C
:1001B0001F920F920FB60F9211248F931092B000DE
:1001C0001092AF00B898B29B0BC0B09BFCCF08C098
:1001D00088EF8DB902C088EA8DB980EF8EB903C06F
:1001E000B099F9CFF5CF8F910F900FBE0F901F9060
:1001F00018951F920F920FB60F9211242F933F93D1
:100200004F935F936F937F938F939F93AF93BF931E
:10021000EF93FF938091AF009091B00082309105F1
:1002200009F47BC034F4009769F0019709F44CC0DD
:10023000A9C08430910509F47BC0F4F1059709F455
:1002400081C0A0C08FB1882351F08FB190E0959507
:1002500087952091B10030E08217930741F5789B94
:100260001BC0E0916300F0916400309739F08091F9
:100270008C00882319F080918C000995E09165002D
:10028000F0916600309709F0099581E090E0909335
:10029000B0008093AF0006C084E090E09093B0007F
:1002A0008093AF001FB8B89A8EE78EB96BC088EA0A
:1002B0008DB980E78EB966C08FB1882329F088EAAE
:1002C0008DB980E78EB95EC0809169008823E1F026
:1002D000E0916A00F0E0E459FF4F80818FB980918E
:1002E0006A008F5F8F7180936A00809169008150EE
:1002F0008093690082E090E09093B0008093AF001B
:10030000B89A80E78EB93EC0B8981FB88EE78EB90C
:1003100088EA8DB980E78EB935C083E090E090938C
:10032000B0008093AF00B8981FB88EE78EB92AC08E
:1003300085E090E09093B0008093AF00B89880E79C
:100340008EB920C080918C00803290F4E0918E00B4
:100350008FB1F0E0E157FF4F808380918E008F5F77
:100360008F7180938E0080918C008F5F80938C00C2
:1003700084E090E09093B0008093AF001FB8B89AEB
:100380008EE78EB9FF91EF91BF91AF919F918F91C1
:100390007F916F915F914F913F912F910F900FBE81
:1003A0000F901F901895FC01CB016481758102D1DB
:1003B0009C019183808366817781FCD093878287BB
:1003C00060857185C901F6D09587848708950F935C
:1003D0001F93FC0111821082138212821583048301
:1003E0007783668351874087138612861586148625
:1003F00037872687118A108A138A128A178A168AE3
:10040000118E108E60E070E0CEDF1F910F91089585
:10041000FC0126893789332314F421583F4FA90161
:10042000440F452F441F550BFC01208D318D332384
:1004300014F421583F4FC901880F892F881F990B49
:10044000840F951F0895FC0182859385978B868B79
:10045000848595851816190694F4208D318D46856E
:100460005785BA01681B790B261737072CF4820FC2
:10047000931F918F808F19C0518F408F16C0992381
:10048000A4F4408D518D268537853195219531090C
:10049000B901681B790B641775072CF4840F951F3D
:1004A000918F808F02C0318F208F13821282089526
:1004B000EF92FF920F931F93CF93DF93FC018489F8
:1004C000861304C09589941709F461C021E0841350
:1004D00001C020E082819381A081B1818A179B07AE
:1004E0000CF050C0211103C048C021111FC0A689C3
:1004F000B789C681D781AC1BBD0BB78BA68BC08DCE
:10050000D18D00851185A685B7857801EA1AFB0A89
:10051000EC16FD062CF4C01BD10BD18FC08F21C06F
:10052000B195A195B109B18FA08F1BC0C689D7899C
:10053000A681B781AC0FBD1FB78BA68B008D118D27
:10054000C685D785A085B1857E01EA1AFB0A0E15FE
:100550001F052CF4A00FB11FB18FA08F02C0D18F47
:10056000C08F222321F001969383828303C00197D9
:1005700093838283648B458B0AC0A817B9070CF458
:10058000B6CFD4CFA817B9070CF4AFCFCFCFDF9138
:10059000CF911F910F91FF90EF900895FC01828100
:1005A00093810895FC01868997890895FC018689C5
:1005B000978908950024552704C0080E591F880FF5
:1005C000991F009729F076956795B8F37105B9F7EB
:0A05D000802D952F0895F894FFCFB9
:00000001FF
