:1000000012C021C020C01FC01EC01DC01CC0BBC06C
:10001000DBC019C018C017C016C015C014C013C06B
:1000200012C011C010C011241FBECFE5D2E0DEBF48
:10003000CDBF20E0A0E6B0E001C01D92A23BB20718
:10004000E1F719D09BC1DCCF82E690E030D085305B
:1000500011F4C69A0895C698089560916000709151
:1000600061006F5F7F4F709361006093600082E674
:1000700090E018D008956AE082E690E010D064E243
:1000800070E082E690E015D06DE270E082E690E0EC
:1000900015D0BE9AC698789416D0FECF0895862FB4
:1000A00023D00895862F40D008956AD0089552D065
:1000B00008957093640060936300089570936600E0
:1000C0006093650008958091630090916400892B8E
:1000D00051F0759B08C054D0882329F0E09163004B
:1000E000F09164000995089510928D0010928E0091
:1000F00010928C0010926A0010926B0010926900AE
:100100008093B10087B3856087BBC29AC09AB898C4
:1001100088EA8DB980EF8EB908959091690081E0E9
:10012000911101C080E00895909169009032E1F34F
:10013000E0916B00F0E0E459FF4F808380916B0009
:100140008F5F8F7180936B00809169008F5F8093C8
:100150006900089580918C008823E1F3E0918D007F
:10016000F0E0E157FF4F808190918D009F5F9F717C
:1001700090938D0090918C00915090938C000895F5
:1001800080918C0008951F920F920FB60F92112448
:100190008F931092B0001092AF00B898B29B0BC032
:1001A000B09BFCCF08C088EF8DB902C088EA8DB93A
:1001B00080EF8EB903C0B099F9CFF5CF8F910F9032
:1001C0000FBE0F901F9018951F920F920FB60F92AF
:1001D00011242F933F934F935F936F937F938F934C
:1001E0009F93AF93BF93EF93FF938091AF00909154
:1001F000B0008230910509F47BC034F4009769F0B7
:10020000019709F44CC0A9C08430910509F47BC062
:10021000F4F1059709F481C0A0C08FB1882351F093
:100220008FB190E0959587952091B10030E08217CD
:10023000930741F5789B1BC0E0916300F091640047
:10024000309739F080918C00882319F080918C00D0
:100250000995E0916500F0916600309709F00995E5
:1002600081E090E09093B0008093AF0006C084E0FE
:1002700090E09093B0008093AF001FB8B89A8EE7DB
:100280008EB96BC088EA8DB980E78EB966C08FB130
:10029000882329F088EA8DB980E78EB95EC0809105
:1002A00069008823E1F0E0916A00F0E0E459FF4F33
:1002B00080818FB980916A008F5F8F7180936A000F
:1002C0008091690081508093690082E090E0909372
:1002D000B0008093AF00B89A80E78EB93EC0B8985E
:1002E0001FB88EE78EB988EA8DB980E78EB935C020
:1002F00083E090E09093B0008093AF00B8981FB86F
:100300008EE78EB92AC085E090E09093B00080938C
:10031000AF00B89880E78EB920C080918C00803201
:1003200090F4E0918E008FB1F0E0E157FF4F8083B1
:1003300080918E008F5F8F7180938E0080918C00F2
:100340008F5F80938C0084E090E09093B000809366
:10035000AF001FB8B89A8EE78EB9FF91EF91BF91A9
:10036000AF919F918F917F916F915F914F913F914D
:100370002F910F900FBE0F901F901895F894FFCFFC
:00000001FF
